{
  "abi": [
    {
      "inputs": [],
      "stateMutability": "nonpayable",
      "type": "constructor"
    },
    {
      "anonymous": false,
      "inputs": [
        {
          "indexed": true,
          "internalType": "address",
          "name": "owner",
          "type": "address"
        },
        {
          "indexed": true,
          "internalType": "address",
          "name": "approved",
          "type": "address"
        },
        {
          "indexed": true,
          "internalType": "uint256",
          "name": "tokenId",
          "type": "uint256"
        }
      ],
      "name": "Approval",
      "type": "event"
    },
    {
      "anonymous": false,
      "inputs": [
        {
          "indexed": true,
          "internalType": "address",
          "name": "owner",
          "type": "address"
        },
        {
          "indexed": true,
          "internalType": "address",
          "name": "operator",
          "type": "address"
        },
        {
          "indexed": false,
          "internalType": "bool",
          "name": "approved",
          "type": "bool"
        }
      ],
      "name": "ApprovalForAll",
      "type": "event"
    },
    {
      "anonymous": false,
      "inputs": [],
      "name": "GameEnded",
      "type": "event"
    },
    {
      "anonymous": false,
      "inputs": [],
      "name": "GameStarted",
      "type": "event"
    },
    {
      "anonymous": false,
      "inputs": [
        {
          "indexed": false,
          "internalType": "address",
          "name": "claimer",
          "type": "address"
        },
        {
          "indexed": false,
          "internalType": "uint256",
          "name": "giftIndex",
          "type": "uint256"
        }
      ],
      "name": "GiftClaimed",
      "type": "event"
    },
    {
      "anonymous": false,
      "inputs": [
        {
          "indexed": false,
          "internalType": "address",
          "name": "depositor",
          "type": "address"
        },
        {
          "indexed": false,
          "internalType": "address",
          "name": "collection",
          "type": "address"
        },
        {
          "indexed": false,
          "internalType": "uint256",
          "name": "tokenId",
          "type": "uint256"
        }
      ],
      "name": "GiftDeposited",
      "type": "event"
    },
    {
      "anonymous": false,
      "inputs": [
        {
          "indexed": false,
          "internalType": "address",
          "name": "stealer",
          "type": "address"
        },
        {
          "indexed": false,
          "internalType": "address",
          "name": "victim",
          "type": "address"
        },
        {
          "indexed": false,
          "internalType": "uint256",
          "name": "giftIndex",
          "type": "uint256"
        }
      ],
      "name": "GiftStolen",
      "type": "event"
    },
    {
      "anonymous": false,
      "inputs": [
        {
          "indexed": false,
          "internalType": "address",
          "name": "withdrawer",
          "type": "address"
        },
        {
          "indexed": false,
          "internalType": "address",
          "name": "collection",
          "type": "address"
        },
        {
          "indexed": false,
          "internalType": "uint256",
          "name": "tokenId",
          "type": "uint256"
        }
      ],
      "name": "GiftWithdrawn",
      "type": "event"
    },
    {
      "anonymous": false,
      "inputs": [
        {
          "indexed": false,
          "internalType": "uint8",
          "name": "version",
          "type": "uint8"
        }
      ],
      "name": "Initialized",
      "type": "event"
    },
    {
      "anonymous": false,
      "inputs": [
        {
          "indexed": true,
          "internalType": "address",
          "name": "from",
          "type": "address"
        },
        {
          "indexed": true,
          "internalType": "address",
          "name": "to",
          "type": "address"
        },
        {
          "indexed": true,
          "internalType": "uint256",
          "name": "tokenId",
          "type": "uint256"
        }
      ],
      "name": "Transfer",
      "type": "event"
    },
    {
      "inputs": [
        {
          "internalType": "address",
          "name": "to",
          "type": "address"
        },
        {
          "internalType": "uint256",
          "name": "tokenId",
          "type": "uint256"
        }
      ],
      "name": "approve",
      "outputs": [],
      "stateMutability": "nonpayable",
      "type": "function"
    },
    {
      "inputs": [
        {
          "internalType": "address",
          "name": "owner",
          "type": "address"
        }
      ],
      "name": "balanceOf",
      "outputs": [
        {
          "internalType": "uint256",
          "name": "",
          "type": "uint256"
        }
      ],
      "stateMutability": "view",
      "type": "function"
    },
    {
      "inputs": [
        {
          "internalType": "uint256",
          "name": "tokenId",
          "type": "uint256"
        },
        {
          "internalType": "uint256",
          "name": "targetGiftIndex",
          "type": "uint256"
        }
      ],
      "name": "claimGift",
      "outputs": [],
      "stateMutability": "nonpayable",
      "type": "function"
    },
    {
      "inputs": [],
      "name": "end",
      "outputs": [],
      "stateMutability": "nonpayable",
      "type": "function"
    },
    {
      "inputs": [
        {
          "internalType": "uint256",
          "name": "tokenId",
          "type": "uint256"
        }
      ],
      "name": "getApproved",
      "outputs": [
        {
          "internalType": "address",
          "name": "",
          "type": "address"
        }
      ],
      "stateMutability": "view",
      "type": "function"
    },
    {
      "inputs": [
        {
          "internalType": "uint256",
          "name": "tokenId",
          "type": "uint256"
        }
      ],
      "name": "getGiftIndex",
      "outputs": [
        {
          "internalType": "uint256",
          "name": "",
          "type": "uint256"
        }
      ],
      "stateMutability": "view",
      "type": "function"
    },
    {
      "inputs": [
        {
          "internalType": "uint256",
          "name": "tokenId",
          "type": "uint256"
        }
      ],
      "name": "hasClaimedGift",
      "outputs": [
        {
          "internalType": "bool",
          "name": "",
          "type": "bool"
        }
      ],
      "stateMutability": "view",
      "type": "function"
    },
    {
      "inputs": [
        {
          "internalType": "string",
          "name": "tokenName_",
          "type": "string"
        },
        {
          "internalType": "string",
          "name": "tokenSymbol_",
          "type": "string"
        }
      ],
      "name": "initialize",
      "outputs": [],
      "stateMutability": "nonpayable",
      "type": "function"
    },
    {
      "inputs": [
        {
          "internalType": "address",
          "name": "owner",
          "type": "address"
        },
        {
          "internalType": "address",
          "name": "operator",
          "type": "address"
        }
      ],
      "name": "isApprovedForAll",
      "outputs": [
        {
          "internalType": "bool",
          "name": "",
          "type": "bool"
        }
      ],
      "stateMutability": "view",
      "type": "function"
    },
    {
      "inputs": [],
      "name": "name",
      "outputs": [
        {
          "internalType": "string",
          "name": "",
          "type": "string"
        }
      ],
      "stateMutability": "view",
      "type": "function"
    },
    {
      "inputs": [
        {
          "internalType": "address",
          "name": "",
          "type": "address"
        },
        {
          "internalType": "address",
          "name": "from",
          "type": "address"
        },
        {
          "internalType": "uint256",
          "name": "tokenId",
          "type": "uint256"
        },
        {
          "internalType": "bytes",
          "name": "",
          "type": "bytes"
        }
      ],
      "name": "onERC721Received",
      "outputs": [
        {
          "internalType": "bytes4",
          "name": "",
          "type": "bytes4"
        }
      ],
      "stateMutability": "nonpayable",
      "type": "function"
    },
    {
      "inputs": [
        {
          "internalType": "uint256",
          "name": "tokenId",
          "type": "uint256"
        }
      ],
      "name": "ownerOf",
      "outputs": [
        {
          "internalType": "address",
          "name": "",
          "type": "address"
        }
      ],
      "stateMutability": "view",
      "type": "function"
    },
    {
      "inputs": [
        {
          "internalType": "address",
          "name": "from",
          "type": "address"
        },
        {
          "internalType": "address",
          "name": "to",
          "type": "address"
        },
        {
          "internalType": "uint256",
          "name": "tokenId",
          "type": "uint256"
        }
      ],
      "name": "safeTransferFrom",
      "outputs": [],
      "stateMutability": "nonpayable",
      "type": "function"
    },
    {
      "inputs": [
        {
          "internalType": "address",
          "name": "from",
          "type": "address"
        },
        {
          "internalType": "address",
          "name": "to",
          "type": "address"
        },
        {
          "internalType": "uint256",
          "name": "tokenId",
          "type": "uint256"
        },
        {
          "internalType": "bytes",
          "name": "data",
          "type": "bytes"
        }
      ],
      "name": "safeTransferFrom",
      "outputs": [],
      "stateMutability": "nonpayable",
      "type": "function"
    },
    {
      "inputs": [
        {
          "internalType": "address",
          "name": "operator",
          "type": "address"
        },
        {
          "internalType": "bool",
          "name": "approved",
          "type": "bool"
        }
      ],
      "name": "setApprovalForAll",
      "outputs": [],
      "stateMutability": "nonpayable",
      "type": "function"
    },
    {
      "inputs": [
        {
          "internalType": "uint256",
          "name": "tokenId",
          "type": "uint256"
        },
        {
          "internalType": "uint256",
          "name": "giftIndex",
          "type": "uint256"
        }
      ],
      "name": "setGiftIndex",
      "outputs": [],
      "stateMutability": "nonpayable",
      "type": "function"
    },
    {
      "inputs": [],
      "name": "start",
      "outputs": [],
      "stateMutability": "nonpayable",
      "type": "function"
    },
    {
      "inputs": [
        {
          "internalType": "uint256",
          "name": "tokenId",
          "type": "uint256"
        },
        {
          "internalType": "uint256",
          "name": "targetTokenId",
          "type": "uint256"
        }
      ],
      "name": "stealGift",
      "outputs": [],
      "stateMutability": "nonpayable",
      "type": "function"
    },
    {
      "inputs": [
        {
          "internalType": "bytes4",
          "name": "interfaceId",
          "type": "bytes4"
        }
      ],
      "name": "supportsInterface",
      "outputs": [
        {
          "internalType": "bool",
          "name": "",
          "type": "bool"
        }
      ],
      "stateMutability": "view",
      "type": "function"
    },
    {
      "inputs": [],
      "name": "symbol",
      "outputs": [
        {
          "internalType": "string",
          "name": "",
          "type": "string"
        }
      ],
      "stateMutability": "view",
      "type": "function"
    },
    {
      "inputs": [
        {
          "internalType": "uint256",
          "name": "tokenId",
          "type": "uint256"
        }
      ],
      "name": "tokenURI",
      "outputs": [
        {
          "internalType": "string",
          "name": "",
          "type": "string"
        }
      ],
      "stateMutability": "view",
      "type": "function"
    },
    {
      "inputs": [
        {
          "internalType": "address",
          "name": "from",
          "type": "address"
        },
        {
          "internalType": "address",
          "name": "to",
          "type": "address"
        },
        {
          "internalType": "uint256",
          "name": "tokenId",
          "type": "uint256"
        }
      ],
      "name": "transferFrom",
      "outputs": [],
      "stateMutability": "nonpayable",
      "type": "function"
    },
    {
      "inputs": [
        {
          "internalType": "uint256",
          "name": "tokenId",
          "type": "uint256"
        }
      ],
      "name": "withdraw",
      "outputs": [],
      "stateMutability": "nonpayable",
      "type": "function"
    }
  ],
  "bytecode": {
    "object": "0x60806040523480156200001157600080fd5b506040518060400160405280600a81526020016957686974655768616c6560b01b81525060405180604001604052806002815260200161575760f01b81525081600190816200006191906200011e565b5060026200007082826200011e565b505050620001ea565b634e487b7160e01b600052604160045260246000fd5b600181811c90821680620000a457607f821691505b602082108103620000c557634e487b7160e01b600052602260045260246000fd5b50919050565b601f8211156200011957600081815260208120601f850160051c81016020861015620000f45750805b601f850160051c820191505b81811015620001155782815560010162000100565b5050505b505050565b81516001600160401b038111156200013a576200013a62000079565b62000152816200014b84546200008f565b84620000cb565b602080601f8311600181146200018a5760008415620001715750858301515b600019600386901b1c1916600185901b17855562000115565b600085815260208120601f198616915b82811015620001bb578886015182559484019460019091019084016200019a565b5085821015620001da5787850151600019600388901b60f8161c191681555b5050505050600190811b01905550565b61249b80620001fa6000396000f3fe608060405234801561001057600080fd5b506004361061014d5760003560e01c80635032745e116100c3578063b88d4fde1161007c578063b88d4fde146102f1578063be9a655514610304578063c87b56dd1461030c578063e75184451461031f578063e985e9c514610332578063efbe1c1c1461034557600080fd5b80635032745e1461027b5780636352211e1461029d57806370a08231146102b057806395d89b41146102c3578063a22cb465146102cb578063b5106d47146102de57600080fd5b806311efc8d21161011557806311efc8d2146101e2578063150b7a021461020357806323b872dd1461022f5780632e1a7d4d1461024257806342842e0e146102555780634cd88b761461026857600080fd5b806301ffc9a71461015257806306fdde031461017a578063081812fc1461018f578063095ea7b3146101ba578063107e40d9146101cf575b600080fd5b610165610160366004611cbf565b61034d565b60405190151581526020015b60405180910390f35b61018261039f565b6040516101719190611d2c565b6101a261019d366004611d3f565b610431565b6040516001600160a01b039091168152602001610171565b6101cd6101c8366004611d74565b610458565b005b6101cd6101dd366004611d9e565b610572565b6101f56101f0366004611d3f565b610971565b604051908152602001610171565b610216610211366004611dc0565b61098c565b6040516001600160e01b03199091168152602001610171565b6101cd61023d366004611e5b565b610b8d565b6101cd610250366004611d3f565b610bbe565b6101cd610263366004611e5b565b610d59565b6101cd610276366004611f43565b610d74565b610165610289366004611d3f565b6000908152600b6020526040902054151590565b6101a26102ab366004611d3f565b610e90565b6101f56102be366004611fa7565b610ef0565b610182610f76565b6101cd6102d9366004611fc2565b610f85565b6101cd6102ec366004611d9e565b610f94565b6101cd6102ff366004611ffe565b61115f565b6101cd611197565b61018261031a366004611d3f565b61122c565b6101cd61032d366004611d9e565b6112a0565b61016561034036600461207a565b6112c1565b6101cd6112ef565b60006001600160e01b031982166380ac58cd60e01b148061037e57506001600160e01b03198216635b5e139f60e01b145b8061039957506301ffc9a760e01b6001600160e01b03198316145b92915050565b6060600180546103ae906120ad565b80601f01602080910402602001604051908101604052809291908181526020018280546103da906120ad565b80156104275780601f106103fc57610100808354040283529160200191610427565b820191906000526020600020905b81548152906001019060200180831161040a57829003601f168201915b5050505050905090565b600061043c826113b0565b506000908152600560205260409020546001600160a01b031690565b600061046382610e90565b9050806001600160a01b0316836001600160a01b0316036104d55760405162461bcd60e51b815260206004820152602160248201527f4552433732313a20617070726f76616c20746f2063757272656e74206f776e656044820152603960f91b60648201526084015b60405180910390fd5b336001600160a01b03821614806104f157506104f181336112c1565b6105635760405162461bcd60e51b815260206004820152603d60248201527f4552433732313a20617070726f76652063616c6c6572206973206e6f7420746f60448201527f6b656e206f776e6572206f7220617070726f76656420666f7220616c6c00000060648201526084016104cc565b61056d8383611412565b505050565b6001600e5460ff16600281111561058b5761058b6120e7565b146105a85760405162461bcd60e51b81526004016104cc906120fd565b6000828152600b6020526040902054156105fd5760405162461bcd60e51b8152602060048201526016602482015275105b1c9958591e481d5b9ddc985c1c19590819da599d60521b60448201526064016104cc565b6003600d54106106635760405162461bcd60e51b815260206004820152602b60248201527f43616e6e6f7420737465616c206d6f7265207468616e2074687265652074696d60448201526a657320696e206120726f7760a81b60648201526084016104cc565b600061066e82610e90565b9050600061067b84610971565b9050336001600160a01b038316036106d55760405162461bcd60e51b815260206004820152601f60248201527f43616e6e6f7420737465616c20676966742066726f6d20796f757273656c660060448201526064016104cc565b6000838152600b60205260409020546107235760405162461bcd60e51b815260206004820152601060248201526f139bc819da599d081d1bc81cdd19585b60821b60448201526064016104cc565b60036009828154811061073857610738612134565b6000918252602090912060039091020160020154600160a01b900460ff16106107b75760405162461bcd60e51b815260206004820152602b60248201527f476966742063616e6e6f742062652073746f6c656e206d6f7265207468616e2060448201526a74687265652074696d657360a81b60648201526084016104cc565b336001600160a01b0316600982815481106107d4576107d4612134565b60009182526020909120600260039092020101546001600160a01b03160361083e5760405162461bcd60e51b815260206004820152601a60248201527f43616e6e6f7420737465616c20796f7572206f776e206769667400000000000060448201526064016104cc565b3361084885610e90565b6001600160a01b03161461086e5760405162461bcd60e51b81526004016104cc9061214a565b600c54841461088f5760405162461bcd60e51b81526004016104cc9061214a565b600061089a84610971565b90506108a685826112a0565b6000848152600b60205260408120556009805460019190839081106108cd576108cd612134565b906000526020600020906003020160020160148282829054906101000a900460ff166108f99190612187565b92506101000a81548160ff021916908360ff1602179055506001600d600082825461092491906121a0565b9091555050600c8490556040517f0cf41f0dad2a635cb9f1d8fd6b73f561dbccf43625494c7986a401feaf8a5b2790610962903390869085906121b3565b60405180910390a15050505050565b6000818152600b6020526040812054610399906001906121d7565b600080600e5460ff1660028111156109a6576109a66120e7565b146109f35760405162461bcd60e51b815260206004820152601860248201527f47616d652068617320616c72656164792073746172746564000000000000000060448201526064016104cc565b6109fc85610ef0565b15610a425760405162461bcd60e51b8152602060048201526016602482015275105b1c9958591e4819195c1bdcda5d19590819da599d60521b60448201526064016104cc565b6040805160808101825285815233602082019081526001600160a01b038881169383019384526000606084018181526009805460018101825592819052945160039092027f6e1540171b6c0c960b71a7020d9f60077f6af931a8bbf590da0223dacf75c7af81019290925592517f6e1540171b6c0c960b71a7020d9f60077f6af931a8bbf590da0223dacf75c7b0820180549184166001600160a01b031990921691909117905593517f6e1540171b6c0c960b71a7020d9f60077f6af931a8bbf590da0223dacf75c7b19094018054925160ff16600160a01b026001600160a81b031990931694909116939093171790915554610b40908690611480565b7f2a1d98a0abeea91ecab531693af8f7aba7dc6fe5a0acd5416137fe0b654c0901853386604051610b73939291906121b3565b60405180910390a150630a85bd0160e11b95945050505050565b610b97338261149a565b610bb35760405162461bcd60e51b81526004016104cc906121ea565b61056d8383836114f9565b6002600e5460ff166002811115610bd757610bd76120e7565b14610c1b5760405162461bcd60e51b815260206004820152601460248201527311d85b59481a5cc81b9bdd08199a5b9a5cda195960621b60448201526064016104cc565b6000818152600b6020526040812054610c36906001906121d7565b9050600060098281548110610c4d57610c4d612134565b60009182526020918290206040805160808101825260039093029091018054835260018101546001600160a01b039081169484018590526002909101549081169183019190915260ff600160a01b90910416606082015291506342842e0e30610cb586610e90565b84516040516001600160e01b031960e086901b168152610cda939291906004016121b3565b600060405180830381600087803b158015610cf457600080fd5b505af1158015610d08573d6000803e3d6000fd5b505050507f9e656a8693e74145d5098a98286237944545a37febd57fbc65fa873196b58e22610d3684610e90565b60208301518351604051610d4c939291906121b3565b60405180910390a1505050565b61056d8383836040518060200160405280600081525061115f565b600054610100900460ff1615808015610d945750600054600160ff909116105b80610dae5750303b158015610dae575060005460ff166001145b610e115760405162461bcd60e51b815260206004820152602e60248201527f496e697469616c697a61626c653a20636f6e747261637420697320616c72656160448201526d191e481a5b9a5d1a585b1a5e995960921b60648201526084016104cc565b6000805460ff191660011790558015610e34576000805461ff0019166101001790555b6007610e408482612285565b506008610e4d8382612285565b50801561056d576000805461ff0019169055604051600181527f7f26b83ff96e1f2b6a682f133852f6798a09c465da95921460cefb384740249890602001610d4c565b6000818152600360205260408120546001600160a01b0316806103995760405162461bcd60e51b8152602060048201526018602482015277115490cdcc8c4e881a5b9d985b1a59081d1bdad95b88125160421b60448201526064016104cc565b60006001600160a01b038216610f5a5760405162461bcd60e51b815260206004820152602960248201527f4552433732313a2061646472657373207a65726f206973206e6f7420612076616044820152683634b21037bbb732b960b91b60648201526084016104cc565b506001600160a01b031660009081526004602052604090205490565b6060600280546103ae906120ad565b610f9033838361166a565b5050565b6001600e5460ff166002811115610fad57610fad6120e7565b14610fca5760405162461bcd60e51b81526004016104cc906120fd565b6000828152600b60205260409020541561101f5760405162461bcd60e51b8152602060048201526016602482015275105b1c9958591e481d5b9ddc985c1c19590819da599d60521b60448201526064016104cc565b3361102983610e90565b6001600160a01b03161461104f5760405162461bcd60e51b81526004016104cc9061214a565b600c5482146110705760405162461bcd60e51b81526004016104cc9061214a565b600881901c6000908152600a602052604090205460ff82161c600116156110d95760405162461bcd60e51b815260206004820152601d60248201527f476966742068617320616c7265616479206265656e20636c61696d656400000060448201526064016104cc565b6110e382826112a0565b600881901c6000908152600a602052604090208054600160ff84161b1790556000600d819055506001600c600082825461111d91906121a0565b909155505060408051338152602081018390527f63470d7f30c22aa66a80557958389b03c1a5d7d61f31b9bd0642097d2aae3a9a910160405180910390a15050565b611169338361149a565b6111855760405162461bcd60e51b81526004016104cc906121ea565b61119184848484611738565b50505050565b6000600e5460ff1660028111156111b0576111b06120e7565b146111f45760405162461bcd60e51b815260206004820152601460248201527311d85b5948185b1c9958591e481cdd185c9d195960621b60448201526064016104cc565b600e805460ff191660011790556040517f762f260439bb4be3ef6e4dc2786e2e7bd187d3d80b79057d7a424fe98563e33590600090a1565b6060611237826113b0565b600061124e60408051602081019091526000815290565b9050600081511161126e5760405180602001604052806000815250611299565b806112788461176b565b604051602001611289929190612345565b6040516020818303038152906040525b9392505050565b6112ab8160016121a0565b6000928352600b60205260409092209190915550565b6001600160a01b03918216600090815260066020908152604080832093909416825291909152205460ff1690565b6001600e5460ff166002811115611308576113086120e7565b146113255760405162461bcd60e51b81526004016104cc906120fd565b600954600c54146113785760405162461bcd60e51b815260206004820152601b60248201527f47616d6520686173206e6f74206265656e20636f6d706c65746564000000000060448201526064016104cc565b600e805460ff191660021790556040517f1084d47e99647565312e58bba004b0fc3088c683fa22f3925f1cf5fb0955402990600090a1565b6000818152600360205260409020546001600160a01b031661140f5760405162461bcd60e51b8152602060048201526018602482015277115490cdcc8c4e881a5b9d985b1a59081d1bdad95b88125160421b60448201526064016104cc565b50565b600081815260056020526040902080546001600160a01b0319166001600160a01b038416908117909155819061144782610e90565b6001600160a01b03167f8c5be1e5ebec7d5bd14f71427d1e84f3dd0314c0f7b2291e5b200ac8c7c3b92560405160405180910390a45050565b610f908282604051806020016040528060008152506117fe565b6000806114a683610e90565b9050806001600160a01b0316846001600160a01b031614806114cd57506114cd81856112c1565b806114f15750836001600160a01b03166114e684610431565b6001600160a01b0316145b949350505050565b826001600160a01b031661150c82610e90565b6001600160a01b0316146115325760405162461bcd60e51b81526004016104cc90612374565b6001600160a01b0382166115945760405162461bcd60e51b8152602060048201526024808201527f4552433732313a207472616e7366657220746f20746865207a65726f206164646044820152637265737360e01b60648201526084016104cc565b6115a18383836001611831565b826001600160a01b03166115b482610e90565b6001600160a01b0316146115da5760405162461bcd60e51b81526004016104cc90612374565b600081815260056020908152604080832080546001600160a01b03199081169091556001600160a01b0387811680865260048552838620805460001901905590871680865283862080546001019055868652600390945282852080549092168417909155905184937fddf252ad1be2c89b69c2b068fc378daa952ba7f163c4a11628f55a4df523b3ef91a4505050565b816001600160a01b0316836001600160a01b0316036116cb5760405162461bcd60e51b815260206004820152601960248201527f4552433732313a20617070726f766520746f2063616c6c65720000000000000060448201526064016104cc565b6001600160a01b03838116600081815260066020908152604080832094871680845294825291829020805460ff191686151590811790915591519182527f17307eab39ab6107e8899845ad3d59bd9653f200f220920489ca2b5937696c31910160405180910390a3505050565b6117438484846114f9565b61174f848484846118af565b6111915760405162461bcd60e51b81526004016104cc906123b9565b60606000611778836119b0565b600101905060008167ffffffffffffffff81111561179857611798611e97565b6040519080825280601f01601f1916602001820160405280156117c2576020820181803683370190505b5090508181016020015b600019016f181899199a1a9b1b9c1cb0b131b232b360811b600a86061a8153600a85049450846117cc57509392505050565b6118088383611a88565b61181560008484846118af565b61056d5760405162461bcd60e51b81526004016104cc906123b9565b6002600e5460ff16600281111561184a5761184a6120e7565b146118a35760405162461bcd60e51b8152602060048201526024808201527f546f6b656e7320617265206c6f636b656420756e74696c2067616d652069732060448201526337bb32b960e11b60648201526084016104cc565b61119184848484611c21565b60006001600160a01b0384163b156119a557604051630a85bd0160e11b81526001600160a01b0385169063150b7a02906118f390339089908890889060040161240b565b6020604051808303816000875af192505050801561192e575060408051601f3d908101601f1916820190925261192b91810190612448565b60015b61198b573d80801561195c576040519150601f19603f3d011682016040523d82523d6000602084013e611961565b606091505b5080516000036119835760405162461bcd60e51b81526004016104cc906123b9565b805181602001fd5b6001600160e01b031916630a85bd0160e11b1490506114f1565b506001949350505050565b60008072184f03e93ff9f4daa797ed6e38ed64bf6a1f0160401b83106119ef5772184f03e93ff9f4daa797ed6e38ed64bf6a1f0160401b830492506040015b6d04ee2d6d415b85acef81000000008310611a1b576d04ee2d6d415b85acef8100000000830492506020015b662386f26fc100008310611a3957662386f26fc10000830492506010015b6305f5e1008310611a51576305f5e100830492506008015b6127108310611a6557612710830492506004015b60648310611a77576064830492506002015b600a83106103995760010192915050565b6001600160a01b038216611ade5760405162461bcd60e51b815260206004820181905260248201527f4552433732313a206d696e7420746f20746865207a65726f206164647265737360448201526064016104cc565b6000818152600360205260409020546001600160a01b031615611b435760405162461bcd60e51b815260206004820152601c60248201527f4552433732313a20746f6b656e20616c7265616479206d696e7465640000000060448201526064016104cc565b611b51600083836001611831565b6000818152600360205260409020546001600160a01b031615611bb65760405162461bcd60e51b815260206004820152601c60248201527f4552433732313a20746f6b656e20616c7265616479206d696e7465640000000060448201526064016104cc565b6001600160a01b038216600081815260046020908152604080832080546001019055848352600390915280822080546001600160a01b0319168417905551839291907fddf252ad1be2c89b69c2b068fc378daa952ba7f163c4a11628f55a4df523b3ef908290a45050565b6001811115611191576001600160a01b03841615611c67576001600160a01b03841660009081526004602052604081208054839290611c619084906121d7565b90915550505b6001600160a01b03831615611191576001600160a01b03831660009081526004602052604081208054839290611c9e9084906121a0565b909155505050505050565b6001600160e01b03198116811461140f57600080fd5b600060208284031215611cd157600080fd5b813561129981611ca9565b60005b83811015611cf7578181015183820152602001611cdf565b50506000910152565b60008151808452611d18816020860160208601611cdc565b601f01601f19169290920160200192915050565b6020815260006112996020830184611d00565b600060208284031215611d5157600080fd5b5035919050565b80356001600160a01b0381168114611d6f57600080fd5b919050565b60008060408385031215611d8757600080fd5b611d9083611d58565b946020939093013593505050565b60008060408385031215611db157600080fd5b50508035926020909101359150565b600080600080600060808688031215611dd857600080fd5b611de186611d58565b9450611def60208701611d58565b935060408601359250606086013567ffffffffffffffff80821115611e1357600080fd5b818801915088601f830112611e2757600080fd5b813581811115611e3657600080fd5b896020828501011115611e4857600080fd5b9699959850939650602001949392505050565b600080600060608486031215611e7057600080fd5b611e7984611d58565b9250611e8760208501611d58565b9150604084013590509250925092565b634e487b7160e01b600052604160045260246000fd5b600067ffffffffffffffff80841115611ec857611ec8611e97565b604051601f8501601f19908116603f01168101908282118183101715611ef057611ef0611e97565b81604052809350858152868686011115611f0957600080fd5b858560208301376000602087830101525050509392505050565b600082601f830112611f3457600080fd5b61129983833560208501611ead565b60008060408385031215611f5657600080fd5b823567ffffffffffffffff80821115611f6e57600080fd5b611f7a86838701611f23565b93506020850135915080821115611f9057600080fd5b50611f9d85828601611f23565b9150509250929050565b600060208284031215611fb957600080fd5b61129982611d58565b60008060408385031215611fd557600080fd5b611fde83611d58565b915060208301358015158114611ff357600080fd5b809150509250929050565b6000806000806080858703121561201457600080fd5b61201d85611d58565b935061202b60208601611d58565b925060408501359150606085013567ffffffffffffffff81111561204e57600080fd5b8501601f8101871361205f57600080fd5b61206e87823560208401611ead565b91505092959194509250565b6000806040838503121561208d57600080fd5b61209683611d58565b91506120a460208401611d58565b90509250929050565b600181811c908216806120c157607f821691505b6020821081036120e157634e487b7160e01b600052602260045260246000fd5b50919050565b634e487b7160e01b600052602160045260246000fd5b60208082526017908201527f47616d65206973206e6f7420696e2070726f6772657373000000000000000000604082015260600190565b634e487b7160e01b600052603260045260246000fd5b6020808252600d908201526c2737ba103cb7bab9103a3ab93760991b604082015260600190565b634e487b7160e01b600052601160045260246000fd5b60ff818116838216019081111561039957610399612171565b8082018082111561039957610399612171565b6001600160a01b039384168152919092166020820152604081019190915260600190565b8181038181111561039957610399612171565b6020808252602d908201527f4552433732313a2063616c6c6572206973206e6f7420746f6b656e206f776e6560408201526c1c881bdc88185c1c1c9bdd9959609a1b606082015260800190565b601f82111561056d57600081815260208120601f850160051c8101602086101561225e5750805b601f850160051c820191505b8181101561227d5782815560010161226a565b505050505050565b815167ffffffffffffffff81111561229f5761229f611e97565b6122b3816122ad84546120ad565b84612237565b602080601f8311600181146122e857600084156122d05750858301515b600019600386901b1c1916600185901b17855561227d565b600085815260208120601f198616915b82811015612317578886015182559484019460019091019084016122f8565b50858210156123355787850151600019600388901b60f8161c191681555b5050505050600190811b01905550565b60008351612357818460208801611cdc565b83519083019061236b818360208801611cdc565b01949350505050565b60208082526025908201527f4552433732313a207472616e736665722066726f6d20696e636f72726563742060408201526437bbb732b960d91b606082015260800190565b60208082526032908201527f4552433732313a207472616e7366657220746f206e6f6e20455243373231526560408201527131b2b4bb32b91034b6b83632b6b2b73a32b960711b606082015260800190565b6001600160a01b038581168252841660208201526040810183905260806060820181905260009061243e90830184611d00565b9695505050505050565b60006020828403121561245a57600080fd5b815161129981611ca956fea2646970667358221220f2b4336d47c4d5f54218759391319620b8ad4277dbf3afc8a644a11ac7a8d87764736f6c63430008110033",
    "linkReferences": {}
  },
  "methodIdentifiers": {
    "approve(address,uint256)": "095ea7b3",
    "balanceOf(address)": "70a08231",
    "claimGift(uint256,uint256)": "b5106d47",
    "end()": "efbe1c1c",
    "getApproved(uint256)": "081812fc",
    "getGiftIndex(uint256)": "11efc8d2",
    "hasClaimedGift(uint256)": "5032745e",
    "initialize(string,string)": "4cd88b76",
    "isApprovedForAll(address,address)": "e985e9c5",
    "name()": "06fdde03",
    "onERC721Received(address,address,uint256,bytes)": "150b7a02",
    "ownerOf(uint256)": "6352211e",
    "safeTransferFrom(address,address,uint256)": "42842e0e",
    "safeTransferFrom(address,address,uint256,bytes)": "b88d4fde",
    "setApprovalForAll(address,bool)": "a22cb465",
    "setGiftIndex(uint256,uint256)": "e7518445",
    "start()": "be9a6555",
    "stealGift(uint256,uint256)": "107e40d9",
    "supportsInterface(bytes4)": "01ffc9a7",
    "symbol()": "95d89b41",
    "tokenURI(uint256)": "c87b56dd",
    "transferFrom(address,address,uint256)": "23b872dd",
    "withdraw(uint256)": "2e1a7d4d"
  },
  "id": 29
}