{
  "abi": [
    {
      "inputs": [
        {
          "internalType": "address",
          "name": "_whiteWhale",
          "type": "address"
        }
      ],
      "stateMutability": "nonpayable",
      "type": "constructor"
    },
    {
      "anonymous": false,
      "inputs": [
        {
          "indexed": false,
          "internalType": "address",
          "name": "game",
          "type": "address"
        }
      ],
      "name": "GameDeployed",
      "type": "event"
    },
    {
      "inputs": [
        {
          "internalType": "string",
          "name": "name",
          "type": "string"
        },
        {
          "internalType": "string",
          "name": "symbol",
          "type": "string"
        }
      ],
      "name": "deploy",
      "outputs": [],
      "stateMutability": "nonpayable",
      "type": "function"
    }
  ],
  "bytecode": {
    "object": "0x608060405234801561001057600080fd5b506040516103e23803806103e283398101604081905261002f91610054565b600080546001600160a01b0319166001600160a01b0392909216919091179055610084565b60006020828403121561006657600080fd5b81516001600160a01b038116811461007d57600080fd5b9392505050565b61034f806100936000396000f3fe608060405234801561001057600080fd5b506004361061002b5760003560e01c8063b548848714610030575b600080fd5b61004361003e366004610241565b610045565b005b6000805461005b906001600160a01b0316610100565b60405163266c45bb60e11b81529091506001600160a01b03821690634cd88b769061008c90869086906004016102eb565b600060405180830381600087803b1580156100a657600080fd5b505af11580156100ba573d6000803e3d6000fd5b50506040516001600160a01b03841681527ff1202b065a67310f2545227cfb1c204f3f98ad8b510feded45ebdb60c51e70f19250602001905060405180910390a1505050565b6000763d602d80600a3d3981f3363d3d373d3d3d363d730000008260601b60e81c176000526e5af43d82803e903d91602b57fd5bf38260781b17602052603760096000f090506001600160a01b0381166101995760405162461bcd60e51b8152602060048201526016602482015275115490cc4c4d8dce8818dc99585d194819985a5b195960521b604482015260640160405180910390fd5b919050565b634e487b7160e01b600052604160045260246000fd5b600082601f8301126101c557600080fd5b813567ffffffffffffffff808211156101e0576101e061019e565b604051601f8301601f19908116603f011681019082821181831017156102085761020861019e565b8160405283815286602085880101111561022157600080fd5b836020870160208301376000602085830101528094505050505092915050565b6000806040838503121561025457600080fd5b823567ffffffffffffffff8082111561026c57600080fd5b610278868387016101b4565b9350602085013591508082111561028e57600080fd5b5061029b858286016101b4565b9150509250929050565b6000815180845260005b818110156102cb576020818501810151868301820152016102af565b506000602082860101526020601f19601f83011685010191505092915050565b6040815260006102fe60408301856102a5565b828103602084015261031081856102a5565b9594505050505056fea26469706673582212208ebdc584e6455eab9b7336216dc01d8234f022c4128992c5cd2fe0481d6001cb64736f6c63430008110033",
    "linkReferences": {}
  },
  "methodIdentifiers": {
    "deploy(string,string)": "b5488487"
  },
  "id": 30
}